:100000000C943B010C946C010C946C010C946C01ED
:100010000C946C010C946C010C946C010C946C01AC
:100020000C946C010C946C010C946C010C946C019C
:100030000C946C010C946C010C946C010C946C018C
:100040000C946C010C946C010C946C010C946C017C
:100050000C9460060C946C010C946C010C94B60525
:100060000C946C010C942A060C9400060C946C0100
:100070000C946C010C946C010C946C010C946C014C
:100080000C946C010C946C010C946C010C946C013C
:100090000C946C010C946C010C946C010C946C012C
:1000A0000C946C010C946C010C946C010C946C011C
:1000B0000C946C010C946C010C946C010C946C010C
:1000C0000C946C010C946C010C946C010C946C01FC
:1000D0000C946C010C946C010C946C010C946C01EC
:1000E0000C946C010C94A1010C945E030C94A70178
:1000F0000C9436040C943C030C94CC010C94000337
:100100000C94D1010C948C010C949E010C94AB01C5
:100110000C9435040C9450030C94B9010C94960380
:100120000C94CD010C94AF060C94B1010C948C0589
:100130000C94B5010C9496010C9492010C949A01C4
:100140000C94BF010C942D030C94C3010C94E30395
:100150000C94C70100002100240027002A002D0074
:100160003000330001010000040107010A01000012
:100170002200250028002B002E003100340002014F
:100180000000050108010B010000200023002600EB
:1001900029002C002F00320000010000030106019D
:1001A00009010505050507050808080802020202FD
:1001B0000A0A080804040404010101010101010103
:1001C0000303030303030303040707070C0C0C0CCE
:1001D0000C0C0C0C020202020606060606060606B7
:1001E0000B0B0B0B0B0B0B0B010210202008081044
:1001F0002040102040800201020108040201010297
:10020000040810204080804020100804020180046F
:1002100002018040201008040201080402010102CA
:1002200004081020408001020408102040800000D3
:100230000A0B02090C0D0E08070304010000000060
:1002400000000000000000000000000000000000AE
:10025000000000000000000000001211100000006B
:10026000000000000000000000000000000000008E
:1002700000000000AF0611241FBECFEFD1E2DEBFA9
:10028000CDBF00E00CBF12E0A0E0B2E0E8EBF7E188
:1002900000E00BBF02C007900D92A43EB107D9F752
:1002A00023E0A4EEB2E001C01D92AC3AB207E1F740
:1002B00011E0CBE3D1E000E006C021970109802FD7
:1002C000FE010E94D20BCA33D10780E00807A9F7CC
:1002D0000E94F9060C94DA0B0C94000081508231D4
:1002E00008F05AC0E82FF0E08827E658FE4F8F4FFD
:1002F0000C94D20B9A019E018C0192019601CC01C3
:10030000A101A701AB01B101B501B901BF01C30151
:10031000CC01C701CD01D101809180008F778093FE
:1003200080000895809180008F7DF9CF80918000BA
:10033000877FF5CF84B58F7784BD089584B58F7D91
:10034000FBCF8091B0008F778093B00008958091AB
:10035000B0008F7DF9CF809190008F7780939000CF
:100360000895809190008F7DF9CF80919000877FD4
:10037000F5CF8091A0008F778093A00008958091A1
:10038000A0008F7DF9CF8091A000877FF5CF80916D
:1003900020018F77809320010895809120018F7D27
:1003A000F9CF80912001877FF5CFCF93DF93282F5E
:1003B00030E0F901E25DFD4F8491F901E851FE4F13
:1003C000D491F901EE55FE4FC491CC23A1F08111D7
:1003D0000E946E01EC2FF0E0EE0FFF1FE857FE4F7A
:1003E000A591B491EC91ED2381E090E009F480E0D7
:1003F000DF91CF91089580E090E0FACFCF92DF9225
:10040000EF92FF920F931F93CF93C0E007E010E0AD
:1004100083E7E82EF12CCC24C394D12C8091EF02F9
:100420009091F0020E94D501892BC1F3C701019779
:10043000F1F78091EF029091F0020E94D5019601B0
:10044000002E01C0220F0A94EAF7892B71F420953F
:10045000C2230150110910F78C2FCF911F910F91DA
:10046000FF90EF90DF90CF900895C22B8091EF0224
:100470009091F0020E94D501892BC1F7EACF1F931A
:10048000CF93DF93282F30E0F901E25DFD4F849197
:10049000F901E851FE4FD491F901EE55FE4FC49198
:1004A000CC23A9F0162F81110E946E01EC2FF0E0F1
:1004B000EE0FFF1FE259FE4FA591B4918FB7F8944C
:1004C000EC91111108C0D095DE23DC938FBFDF9132
:1004D000CF911F910895DE2BF8CFCF93DF9390E05B
:1004E000FC01E851FE4F24918E559E4FFC018491F2
:1004F0008823C9F090E0880F991FFC01EC5AFE4F49
:10050000A591B491FC01E259FE4FC591D4916111BE
:100510000DC09FB7F8948C91209582238C9388818D
:10052000282328839FBFDF91CF910895623051F433
:100530009FB7F8943C91822F809583238C93E88118
:100540002E2BEFCF8FB7F894EC912E2B2C938FBFDF
:10055000EACF3FB7F8948091E9029091EA02A09126
:10056000EB02B091EC0226B5A89B05C02F3F19F015
:100570000196A11DB11D3FBFBA2FA92F982F882723
:10058000BC01CD01620F711D811D911D42E0660FFE
:10059000771F881F991F4A95D1F708958F929F92D0
:1005A000AF92BF92CF92DF92EF92FF924B015C012C
:1005B0000E94A9026B017C010E94A9026C197D09AD
:1005C0008E099F09683E734081059105A8F321E0DB
:1005D000821A9108A108B10888EEC80E83E0D81EDF
:1005E000E11CF11C81149104A104B10429F7FF90CE
:1005F000EF90DF90CF90BF90AF909F908F90089535
:10060000AF92BF92CF92DF92EF92FF920F931F9320
:10061000CF93DF936C017B018B01040F151FEB015E
:100620005E01AE18BF08C017D10759F06991D60115
:10063000ED91FC910190F081E02DC6011995892B77
:1006400079F7C501DF91CF911F910F91FF90EF9046
:10065000DF90CF90BF90AF900895FC01538D448DF3
:10066000252F30E0842F90E0821B930B541710F05D
:10067000CF96089501970895FC01918D828D98176A
:1006800061F0A28DAE0FBF2FB11D5D968C91928D42
:100690009F5F9F73928F90E008958FEF9FEF089573
:1006A000FC01918D828D981731F0828DE80FF11D3C
:1006B000858D90E008958FEF9FEF0895FC01918D57
:1006C000228D892F90E0805C9F4F821B91098F7350
:1006D0009927089587EF92E00E945E0321E0892B1D
:1006E00009F420E0822F0895FC01A48DA80FB92FF2
:1006F000B11DA35ABF4F2C91848D90E001968F734A
:100700009927848FA689B7892C93A089B1898C9168
:10071000837080648C93938D848D981306C00288B7
:10072000F389E02D80818F7D80830895EF92FF9281
:100730000F931F93CF93DF93EC0181E0888F9B8D04
:100740008C8D98131AC0E889F989808185FF15C0BE
:100750009FB7F894EE89FF896083E889F9898081E1
:100760008370806480839FBF81E090E0DF91CF91B0
:100770001F910F91FF90EF900895F62E0B8D10E0D2
:100780000F5F1F4F0F731127E02E8C8D8E110CC041
:100790000FB607FCFACFE889F989808185FFF5CF8C
:1007A000CE010E947403F1CFEB8DEC0FFD2FF11DF4
:1007B000E35AFF4FF0829FB7F8940B8FEA89FB89C9
:1007C00080818062CFCFCF93DF93EC01888D882327
:1007D000B9F0AA89BB89E889F9898C9185FD03C0A4
:1007E000808186FD0DC00FB607FCF7CF8C9185FF89
:1007F000F2CF808185FFEDCFCE010E947403E9CF57
:10080000DF91CF91089580E090E0892B29F00E943C
:100810006A0381110E94000080E090E0892B49F07A
:1008200080E090E0892B29F00E94000081110E9455
:10083000000080E090E0892B49F080E090E0892B77
:1008400029F00E94000081110E94000080E090E0E9
:10085000892B49F080E090E0892B29F00E9400006C
:1008600081110C94000008950895089590E080E0AF
:100870000895CF93DF93EC0160E08E810E943F02E8
:1008800061E08E810E943F0260E08E810E943F0203
:100890008BE891E00197F1F7DF91CF910895CF9226
:1008A000DF92EF92FF920F931F93CF93DF936C0130
:1008B0007C0187E0E80EF11CD0E0C0E0062F10E0DC
:1008C000B8010C2E02C0759567950A94E2F7617025
:1008D000F70181917F010E943F022196C430D1052A
:1008E00079F7C601DF91CF911F910F91FF90EF90A3
:1008F000DF90CF900C943904CF92DF92EF92FF9269
:100900000F931F93CF93DF93EC01F62E642F8C810E
:100910000E943F028D818F3F19F060E00E943F02EC
:100920000F2D10E08F8584FF25C06E0187E0C80E73
:10093000D11CF12CE12CB8010E2C02C075956795E5
:100940000A94E2F76170F60181916F010E943F0203
:10095000FFEFEF1AFF0A88E0E816F10461F7CE0115
:10096000DF91CF911F910F91FF90EF90DF90CF908B
:100970000C943904B80184E0759567958A95E1F780
:10098000CE010E944F046F2DCE01DF91CF911F91B8
:100990000F91FF90EF90DF90CF900C944F0440E0C8
:1009A000682F84E993E00C947C0481E00E94CF04DA
:1009B0008BE39FE10197F1F70895CF93DF938230A6
:1009C00029F49091A30398609093A3038093A703C5
:1009D0001092A80380E48093A90380E18093AA0386
:1009E00080E58093AB0361E0809198030E946D02E3
:1009F000809199038F3F19F061E00E946D0261E0E0
:100A000080919A030E946D02C4E9D3E09E012459AB
:100A100033408091A30384FD0BC084E090E02196D5
:100A20002817390744F461E08E810E946D02EECFF1
:100A300088E090E0F4CF8BE39DE00197F1F760E070
:100A4000809198030E943F0260E080919A030E9487
:100A50003F02809199038F3F19F060E00E943F02AE
:100A60008091A30384FD34C063E084E993E00E9495
:100A70004F04CBE4D6E4CE010197F1F763E084E9BB
:100A800093E00E944F042197F1F763E084E993E03B
:100A90000E944F0483E592E00197F1F762E084E958
:100AA00093E00E944F048091A30380620E94CF04D0
:100AB00084E08093A4038CE00E94CF040E94D504BC
:100AC00082E08093A50386E0DF91CF910C94CF0460
:100AD00080620E94CF048BE496E40197F1F7809145
:100AE000A30380620E94CF0483E592E00197F1F7AF
:100AF0008091A30380620E94CF04D5CF9091A70379
:100B0000891710F08FEF890FE82FF0E0EC56FC4FBB
:100B1000848980680C94CF0441E00E947C0481E0C9
:100B200090E00895FB0101900020E9F73197AF01B3
:100B3000461B570BDC01ED91FC910280F381E02D07
:100B40001994CF93DF93BC0187EF92E00E94920546
:100B5000EC016EE172E087EF92E00E9492058C0F4B
:100B60009D1FDF91CF9108950C9492051F920F92D3
:100B70000FB60F9211242F933F938F939F93AF93B0
:100B8000BF938091E5029091E602A091E702B091B7
:100B9000E8023091E40223E0230F2D3758F5019647
:100BA000A11DB11D2093E4028093E5029093E6021B
:100BB000A093E702B093E8028091E9029091EA02E3
:100BC000A091EB02B091EC020196A11DB11D8093A2
:100BD000E9029093EA02A093EB02B093EC02BF917A
:100BE000AF919F918F913F912F910F900FBE0F90DA
:100BF0001F90189526E8230F0296A11DB11DD2CF94
:100C00001F920F920FB60F9211240BB60F922F93D3
:100C10003F934F935F936F937F938F939F93AF9384
:100C2000BF93EF93FF9387EF92E00E947403FF91CD
:100C3000EF91BF91AF919F918F917F916F915F9154
:100C40004F913F912F910F900BBE0F900FBE0F90C1
:100C50001F9018951F920F920FB60F9211240BB68A
:100C60000F922F938F939F93EF93FF93E09107033E
:100C7000F09108038081E0910D03F0910E0382FD55
:100C80001DC09081809110038F5F8F73209111039D
:100C9000821741F0E0911003F0E0E950FD4F958F8D
:100CA00080931003FF91EF919F918F912F910F905F
:100CB0000BBE0F900FBE0F901F9018958081F2CF42
:100CC0001F920F920FB60F9211240F900FBE0F902C
:100CD0001F901895CF92DF92EF92FF920F931F9380
:100CE000E82FF92F05C0015011092109310961F1DF
:100CF000908196239417B9F305C001501109210979
:100D0000310911F1908196239413F7CFC12CD12C86
:100D1000E12CF12C0AC08FEFC81AD80AE80AF80AA9
:100D20000C151D052E053F0579F08081862384175B
:100D300091F36C2D7D2D8E2D9F2D1F910F91FF9086
:100D4000EF90DF90CF90089560E070E080E090E059
:100D50001F910F91FF90EF90DF90CF900895E7EFF4
:100D6000F2E01382128288EE93E0A0E0B0E0848388
:100D70009583A683B78384E092E09183808385EC9A
:100D800090E09587848784EC90E09787868780EC55
:100D900090E0918B808B81EC90E0938B828B82EC46
:100DA00090E0958B848B86EC90E0978B868B118EF0
:100DB000128E138E148EE4E9F3E01382128286E120
:100DC00092E0918380838DE084838FEF85838CE034
:100DD00086838BE087838AE0808789E0818788E04B
:100DE00082871386148615861686178681E00C94F2
:100DF000DD04CF93DF93CDB7DEB7A1970FB6F8949C
:100E0000DEBF0FBECDBF789484B5826084BD84B54B
:100E1000816084BD85B5826085BD85B5816085BDF5
:100E200080916E00816080936E00109281008091AD
:100E30008100826080938100809181008160809335
:100E40008100809180008160809380008091B1005A
:100E500084608093B1008091B00081608093B00085
:100E600080919100826080939100809191008160D7
:100E70008093910080919000816080939000809198
:100E8000A10082608093A1008091A1008160809385
:100E9000A1008091A00081608093A0008091210139
:100EA00082608093210180912101816080932101E2
:100EB0008091200181608093200180917A0084607C
:100EC00080937A0080917A00826080937A0080918A
:100ED0007A00816080937A0080917A0080688093A4
:100EE0007A001092C10082E00E94DD040E94D504C5
:100EF000E0910703F091080382E08083E09103030F
:100F0000F09104031082E0910503F09106038FEC49
:100F1000808310920F03E0910B03F0910C0386E0A5
:100F20008083E0910903F0910A03808180618083CE
:100F3000E0910903F0910A03808188608083E09149
:100F40000903F0910A03808180688083E09109039E
:100F5000F0910A0380818F7D808361E082E00E94AE
:100F60006D0260E083E00E946D0262E08BE10E940E
:100F70006D0260E086E00E946D0262E08CE10E94FA
:100F80006D0262E08DE10E946D0262E08EE10E94DE
:100F90006D0262E08AE10E946D0261E086E10E94DA
:100FA0006D0261E087E10E946D0261E088E10E94CC
:100FB0006D0261E089E10E946D020E94D50480E02B
:100FC0000E947E056AEF70E080E090E00E94CE0211
:100FD00061E272E084E993E00E94B40568EE73E098
:100FE00080E090E00E94CE020E94D5049BE9E92EA9
:100FF000F12C2BE3822E9924939433EC632E712CE5
:101000004AE0242E312C412C512C53E0C52ED12CFA
:1010100063E2A62EB12C84E090E09093F0028093DE
:10102000EF028091EF029091F00261E00E946D0268
:101030008091EF029091F00260E00E943F0262E135
:1010400070E080E090E00E94CE028091EF029091EB
:10105000F00261E00E943F028BE490E00197F1F71B
:101060008091EF029091F00262E00E946D02109276
:10107000F102C7010197F1F78091EF029091F00220
:101080000E94D501892B89F4C4010197F1F7809161
:10109000EF029091F0020E94D501019719F481E0CE
:1010A0008093F102C3010197F1F78091F102813041
:1010B00009F0CAC00E94FE018093F4020E94FE0162
:1010C0008093F5020E94FE018093F2020E94FE01CD
:1010D0008093F3020E94FE018093F6029091F40245
:1010E0006091F2022091F502290F3327331FA901E5
:1010F000460F511D2091F302240F352F311D332748
:101100008217130609F09BC06093ED029093EE02E4
:1011100080E00E947E0569E472E084E993E00E9429
:10112000B4052091ED0230E050E040E019A28E01BC
:101130000F5D1F4FCA01B901A20191010E94B00BBE
:10114000605DF80162938F0121153105410551055C
:1011500089F7309729F0BF0184E993E00E94920556
:1011600060E082E00E943F02C6010197F1F761E072
:1011700082E00E943F02C5010197F1F760E082E042
:101180000E943F02EBEEF1E06491E5EAF1E0849128
:10119000E82FF0E0EE0FFF1FE857FE4F8591949186
:1011A00000E412E42FE030E0462F0E946A06611549
:1011B00071058105910529F06F5F7F4F8F4F9F4F1C
:1011C0009F700E94240B2DEC3CEC48E652E40E94F8
:1011D0007A0A0E94EC0A6E317105810591050CF0C6
:1011E0007DC081E00E947E056CE472E084E993E0BA
:1011F0000E94B4058CE492E00E94A10560E086E1C3
:101200000E943F0260E087E10E943F0260E088E1C7
:101210000E943F0260E089E10E943F0260E971E0C4
:1012200080E090E00E94CE020E94D50468EE73E058
:1012300080E090E00E94CE020E940304ECCE8CE29B
:1012400092E00E94A10564CF8CE392E0FACF82364F
:10125000E9F461E772E087EF92E00E94B40581E073
:101260000E947E0569E772E084E993E00E94B4057C
:1012700060E086E10E943F0261E087E10E943F0258
:1012800060E088E10E943F0261E01FC0833709F0FF
:101290004CC065E872E087EF92E00E94B40581E0FF
:1012A0000E947E056AE872E084E993E00E94B4053A
:1012B00060E086E10E943F0260E087E10E943F0219
:1012C00060E088E10E943F0260E089E10E943F0205
:1012D00068EE73E080E090E00E94CE0287EF92E03B
:1012E0000E945E03892B09F44FC087EF92E00E94B1
:1012F0003C03863609F0ABCF6CE572E087EF92E0F5
:101300000E94B40581E00E947E0564E672E084E9F3
:1013100093E00E94B40561E086E10E943F0260E034
:1013200087E10E943F0261E0CCCF8237A9F464E9F3
:1013300072E087EF92E00E94B40581E00E947E0592
:101340006AE972E084E993E00E94B40560E086E116
:101350000E943F0261E0E4CF8C3609F0B9CF65EA24
:1013600072E087EF92E00E94B40581E00E947E0562
:101370006AEA72E084E993E00E94B40561E086E1E4
:101380000E943F0260E079CF8BE10E94D501892B5A
:10139000F9F46CE572E087EF92E00E94B40581E019
:1013A0000E947E0564EB72E084E993E00E94B4053C
:1013B00061E086E10E943F0260E087E10E943F0217
:1013C00061E088E10E943F0260E089E10E943F0203
:1013D0008CE10E94D501892BF9F461E772E087EF77
:1013E00092E00E94B40581E00E947E0569E772E008
:1013F00084E993E00E94B40560E086E10E943F0228
:1014000061E087E10E943F0260E088E10E943F02C4
:1014100061E089E10E943F028DE10E94D501892BA4
:10142000F9F465E872E087EF92E00E94B40581E08C
:101430000E947E0560EC72E084E993E00E94B405AE
:1014400060E086E10E943F0260E087E10E943F0287
:1014500060E088E10E943F0260E089E10E943F0273
:101460008EE10E94D501892BF9F465EA72E087EFDD
:1014700092E00E94B40581E00E947E056CEC72E06F
:1014800084E993E00E94B40561E086E10E943F0296
:1014900060E087E10E943F0260E088E10E943F0235
:1014A00061E089E10E943F028AE10E94D501892B17
:1014B00009F0BCCE64E972E087EF92E00E94B405C7
:1014C00081E00E947E0567ED72E084E993E00E946E
:1014D000B40560E086E10E943F0261E087E10E947E
:1014E0003F0261E088E10E943F0260E089E10E94E2
:1014F0003F029CCE0E948E0A0C94760B0E946F0BCA
:1015000058F00E94680B40F029F45F3F29F00C94DA
:101510005F0B51110C94AA0B0C94650B0E94870B66
:1015200068F39923B1F3552391F3951B550BBB2712
:10153000AA2762177307840738F09F5F5F4F220F57
:10154000331F441FAA1FA9F335D00E2E3AF0E0E84E
:1015500032D091505040E695001CCAF72BD0FE2F98
:1015600029D0660F771F881FBB1F2617370748072C
:10157000AB07B0E809F0BB0B802DBF01FF279358E4
:101580005F4F3AF09E3F510578F00C945F0B0C943E
:10159000AA0B5F3FE4F3983ED4F386957795679561
:1015A000B795F7959F5FC9F7880F911D9695879519
:1015B00097F90895E1E0660F771F881FBB1F621738
:1015C00073078407BA0720F0621B730B840BBA0BF6
:1015D000EE1F88F7E09508950E94F30A6894B11110
:1015E0000C94AA0B08950E948F0B88F09F5798F0D7
:1015F000B92F9927B751B0F0E1F0660F771F881F18
:10160000991F1AF0BA95C9F714C0B13091F00E9431
:10161000A90BB1E008950C94A90B672F782F8827A8
:10162000B85F39F0B93FCCF3869577956795B39558
:10163000D9F73EF490958095709561957F4F8F4FC7
:101640009F4F0895E89409C097FB3EF490958095CC
:10165000709561957F4F8F4F9F4F9923A9F0F92F78
:1016600096E9BB279395F695879577956795B795F6
:10167000F111F8CFFAF4BB0F11F460FF1BC06F5FDC
:101680007F4F8F4F9F4F16C0882311F096E911C0EE
:10169000772321F09EE8872F762F05C0662371F00F
:1016A00096E8862F70E060E02AF09A95660F771F23
:1016B000881FDAF7880F9695879597F9089597F917
:1016C0009F6780E870E060E008959FEF80EC0895E8
:1016D00000240A9416161706180609060895002411
:1016E0000A9412161306140605060895092E03948B
:1016F000000C11F4882352F0BB0F40F4BF2B11F4FF
:1017000060FF04C06F5F7F4F8F4F9F4F089557FD5D
:101710009058440F551F59F05F3F71F04795880F5F
:1017200097FB991F61F09F3F79F0879508951216F6
:1017300013061406551FF2CF4695F1DF08C01616A2
:1017400017061806991FF1CF869571056105089453
:101750000895E894BB2766277727CB0197F908956A
:10176000A1E21A2EAA1BBB1BFD010DC0AA1FBB1FA5
:10177000EE1FFF1FA217B307E407F50720F0A21B17
:10178000B30BE40BF50B661F771F881F991F1A9484
:1017900069F760957095809590959B01AC01BD01AE
:1017A000CF010895EE0FFF1F881F8BBF0790F691A2
:0817B000E02D1994F894FFCF1D
:1017B80000000000960300032D03E3035E033C03CF
:1017C8005003000000008C050003360435040D0AA0
:1017D80000574845454C43484149520043686563B2
:1017E8006B2073756D206572726F72004E6F205298
:1017F8006573706F6E73652E00543A004F62737490
:1018080061636C652061686561642000464F5257CA
:1018180041524400464F5257415244202020202034
:101828000052455645525345005245564552534578
:10183800202020200053544F500053544F50202054
:101848002020200052494748540052494748542014
:1018580020202020004C454654004C45465420206A
:1018680020202000464F525741524420202020007B
:1018780053544F5020202020202020004C4546540F
:101888002020202020200052494748542020202092
:04189800202000000C
:00000001FF
