:020000040000FA
:100000000C9462000C948A000C948A000C948A0070
:100010000C948A000C948A000C948A000C948A0038
:100020000C948A000C948A000C948A000C948A0028
:100030000C948A000C94C5030C948A000C948A00DA
:100040000C947B030C948A000C948A000C948A0014
:100050000C948A000C948A000C948A000C948A00F8
:100060000C948A000C948A000000000024002700F1
:100070002A0000000000250028002B0000000000DE
:1000800023002600290004040404040404040202DA
:100090000202020203030303030301020408102007
:1000A0004080010204081020010204081020000012
:1000B0000008000201000003040700000000000027
:1000C0000000EB0411241FBECFEFD8E0DEBFCDBF90
:1000D00011E0A0E0B1E0E8E6FAE002C005900D9280
:1000E000A232B107D9F721E0A2E2B1E001C01D922E
:1000F000AD34B207E1F710E0C2E6D0E004C02197CA
:10010000FE010E942C05C136D107C9F70E94EC03FD
:100110000C9432050C940000833081F028F4813077
:1001200099F08230A9F008958730A9F08830C9F09D
:100130008430B1F4809180008F7D03C08091800075
:100140008F7780938000089584B58F7784BD08955C
:1001500084B58F7DFBCF8091B0008F778093B00006
:1001600008958091B0008F7DF9CFCF93DF93282F32
:1001700030E0F901E255FF4F8491F901E656FF4F57
:10018000D491F901EA57FF4FC491CC23A1F081111A
:100190000E948C00EC2FF0E0EE0FFF1FE458FF4FA1
:1001A000A591B491EC91ED2381E090E009F480E019
:1001B000DF91CF91089580E090E0FACF1F93CF9325
:1001C000DF93282F30E0F901E255FF4F8491F901C8
:1001D000E656FF4FD491F901EA57FF4FC491CC2363
:1001E000A9F0162F81110E948C00EC2FF0E0EE0F89
:1001F000FF1FEE58FF4FA591B4918FB7F894EC9183
:10020000111108C0D095DE23DC938FBFDF91CF9111
:100210001F910895DE2BF8CFCF93DF9390E0FC0180
:10022000E656FF4F24918A579F4FFC018491882303
:10023000C9F090E0880F991FFC01E859FF4FA59184
:10024000B491FC01EE58FF4FC591D49161110DC0DE
:100250009FB7F8948C91209582238C9388812823D2
:1002600028839FBFDF91CF910895623051F49FB7EB
:10027000F8943C91822F809583238C93E8812E2BD8
:10028000EFCF8FB7F894EC912E2B2C938FBFEACF42
:10029000AF92BF92CF92DF92EF92FF920F931F9394
:1002A000CF93DF936C017B018B01040F151FEB01D2
:1002B0005E01AE18BF08C017D10759F06991D60189
:1002C000ED91FC910190F081E02DC6010995892BFB
:1002D00079F7C501DF91CF911F910F91FF90EF90BA
:1002E000DF90CF90BF90AF9008950895089590E06B
:1002F00080E008958F929F92AF92BF920F931F93C9
:10030000CF93DF93CDB7DEB7A1970FB6F894DEBFDA
:100310000FBECDBF19A2423008F44AE08E010F5D36
:100320001F4F842E912CB12CA12CA50194010E9469
:100330000A05E62FB901CA01EA3044F5E05DD801AB
:10034000EE938D01232B242B252B79F790E080E071
:10035000109769F0FD0101900020E9F73197AF0196
:100360004A1B5B0BBD0185E391E00E944801A19609
:100370000FB6F894DEBF0FBECDBFDF91CF911F91B6
:100380000F91BF90AF909F908F900895E95CD7CF69
:10039000FC0101900020E9F73197AF01481B590B90
:1003A000BC0185E391E00C944801CF93DF93EC010D
:1003B00060E08E810E94DE0061E08E810E94DE009E
:1003C00060E08E810E94DE008BE891E00197F1F7FA
:1003D000DF91CF910895CF92DF92EF92FF920F932A
:1003E0001F93CF93DF936C017C0187E0E80EF11C33
:1003F000D0E0C0E0062F10E0B8010C2E02C07595C9
:1004000067950A94E2F76170F70181917F010E947C
:10041000DE002196C430D10579F7C601DF91CF9176
:100420001F910F91FF90EF90DF90CF900C94D5012A
:10043000CF92DF92EF92FF920F931F93CF93DF93B0
:10044000EC01F62E642F8C810E94DE008D818F3F9F
:1004500019F060E00E94DE000F2D10E08F8584FF10
:1004600025C06E0187E0C80ED11CF12CE12CB8012B
:100470000E2C02C0759567950A94E2F76170F6013B
:1004800081916F010E94DE00FFEFEF1AFF0A88E002
:10049000E816F10461F7CE01DF91CF911F910F9122
:1004A000FF90EF90DF90CF900C94D501B80184E0DD
:1004B000759567958A95E1F7CE010E94EB016F2D46
:1004C000CE01DF91CF911F910F91FF90EF90DF90C0
:1004D000CF900C94EB0140E0682F85E391E00C9401
:1004E0001802CF93DF93613029F090914401986016
:1004F00090934401609348011092490190E49093D5
:100500004A0180934B01805C80934C0161E08091B3
:1005100039010E940C0180913A018F3F19F061E08E
:100520000E940C0161E080913B010E940C01C5E337
:10053000D1E09E01255331408091440184FD0BC0E0
:1005400084E090E021962817390744F461E08E8119
:100550000E940C01EECF88E090E0F4CF8BE39DE0A9
:100560000197F1F760E0809139010E94DE0060E0C0
:1005700080913B010E94DE0080913A018F3F19F08B
:1005800060E00E94DE008091440184FD39C063E098
:1005900085E391E00E94EB01CBE4D6E4CE01019724
:1005A000F1F763E085E391E00E94EB012197F1F719
:1005B00063E085E391E00E94EB0183E592E001971F
:1005C000F1F762E085E391E00E94EB018091440144
:1005D00080620E946B0284E0809345018CE00E945F
:1005E0006B0281E00E946B028BE39FE10197F1F7C0
:1005F00082E08093460186E0DF91CF910C946B02FC
:1006000080620E946B028BE496E40197F1F780917F
:10061000440180620E946B0283E592E00197F1F74A
:100620008091440180620E946B02D0CF909148017A
:10063000691710F06FEF690FE62FF0E0EB5CFE4FEB
:100640009489890F80680C946B0241E00E94180223
:1006500081E090E00895CF92DF92EF92FF926B01DC
:100660007C0141E06DE285E391E00E94180266277B
:100670007727CB016C197D098E099F094AE00E94FA
:100680007A010196FF90EF90DF90CF900895CF937D
:10069000DF9380912A0190912B010197F9F4C09189
:1006A0002401D09125012196D0932501C0932401E6
:1006B00060E089E00E941603BE01DD0F880B990BF4
:1006C00097FF08C00E942B038EE091E0DF91CF914D
:1006D0000C94C8014AE00E947A01F6CFDF91CF91D5
:1006E0000895BC01990F880B990B97FD0C942B036F
:1006F0004AE00C947A011F920F920FB60F921124C8
:100700002F933F938F939F93AF93BF93809131012A
:1007100090913201A0913301B091340130913001B8
:1007200023E0230F2D3758F50196A11DB11D20930D
:1007300030018093310190933201A0933301B09343
:10074000340180912C0190912D01A0912E01B09146
:100750002F010196A11DB11D80932C0190932D01B5
:10076000A0932E01B0932F01BF91AF919F918F91D4
:100770003F912F910F900FBE0F901F90189526E874
:10078000230F0296A11DB11DD2CF1F920F920FB65B
:100790000F9211242F933F934F935F936F937F9307
:1007A0008F939F93AF93BF93EF93FF93E0910001DB
:1007B000F09101010995FF91EF91BF91AF919F9148
:1007C0008F917F916F915F914F913F912F910F90FA
:1007D0000FBE0F901F901895789484B5826084BDE9
:1007E00084B5816084BD85B5826085BD85B5816035
:1007F00085BD80916E00816080936E0010928100B3
:10080000809181008260809381008091810081606D
:10081000809381008091800081608093800080912E
:10082000B10084608093B1008091B00081608093BA
:10083000B00080917A00846080937A0080917A0081
:10084000826080937A0080917A00816080937A0040
:1008500080917A00806880937A001092C10064E0F1
:1008600084E10E94710260E084E00E940C0162E079
:1008700082E00E940C0180E1809381001092800050
:1008800088EA91E6909387008093860084E18093C4
:10089000810087E493E0909301018093000181E05F
:1008A00080936F000E946B028BE39FE10197F1F749
:1008B00061E08BE00E94160380E191E00E94C80194
:1008C00060E086E00E94160384E191E00E94C80186
:1008D00061E080E00E94160388E191E00E94C80177
:1008E00086E0D82E00E010E0EE24E394F12C82E0C4
:1008F0000E94B500892B21F4F0922B01E0922A018D
:1009000080912A0190912B01019709F05DC084E04C
:100910000E94B50081309105F1F4209128013091B9
:100920002901232BC1F4C0912601D09127012196E2
:10093000D0932701C0932601909329018093280129
:1009400061E08EE00E941603CE010E9471038EE0EA
:1009500091E00E94C80184E00E94B500892B51F407
:100960008091280190912901019721F41092290189
:100970001092280180912401909125010A9721F578
:100980008091260190912701D89EE001D99ED00D3B
:100990001124D0932301C093220110922B011092B5
:1009A0002A0161E087E00E941603CE010E947103D4
:1009B0008EE091E00E94C80110922701109226015A
:1009C00010922501109224010115110509F48FCF11
:1009D0000E9400008CCFE5E3F1E01382128286E0F2
:1009E00091E0918380838DE084838FEF85838CE019
:1009F00086838BE087838AE0808789E0818788E02F
:100A000082871386148615861686178661E080E134
:100A10000C947102A1E21A2EAA1BBB1BFD010DC092
:100A2000AA1FBB1FEE1FFF1FA217B307E407F5079E
:100A300020F0A21BB30BE40BF50B661F771F881F7A
:100A4000991F1A9469F760957095809590959B0110
:100A5000AC01BD01CF010895EE0FFF1F0590F49189
:100A6000E02D0994F894FFCF7501000000002503E4
:100A7000480177017601200048423A0054693A0063
:0A0A80004842704D696E3A300000E4
:107E0000112484B714BE81FFF0D085E080938100F7
:107E100082E08093C00088E18093C10086E0809377
:107E2000C20080E18093C4008EE0C9D0259A86E02C
:107E300020E33CEF91E0309385002093840096BBD3
:107E4000B09BFECF1D9AA8958150A9F7CC24DD24C4
:107E500088248394B5E0AB2EA1E19A2EF3E0BF2EE7
:107E6000A2D0813461F49FD0082FAFD0023811F036
:107E7000013811F484E001C083E08DD089C08234E0
:107E800011F484E103C0853419F485E0A6D080C0E4
:107E9000853579F488D0E82EFF2485D0082F10E0AE
:107EA000102F00270E291F29000F111F8ED06801E7
:107EB0006FC0863521F484E090D080E0DECF843638
:107EC00009F040C070D06FD0082F6DD080E0C81688
:107ED00080E7D80618F4F601B7BEE895C0E0D1E017
:107EE00062D089930C17E1F7F0E0CF16F0E7DF06D8
:107EF00018F0F601B7BEE89568D007B600FCFDCFD4
:107F0000A601A0E0B1E02C9130E011968C91119780
:107F100090E0982F8827822B932B1296FA010C0160
:107F200087BEE89511244E5F5F4FF1E0A038BF0790
:107F300051F7F601A7BEE89507B600FCFDCF97BE46
:107F4000E89526C08437B1F42ED02DD0F82E2BD052
:107F50003CD0F601EF2C8F010F5F1F4F84911BD097
:107F6000EA94F801C1F70894C11CD11CFA94CF0C13
:107F7000D11C0EC0853739F428D08EE10CD085E9AC
:107F80000AD08FE07ACF813511F488E018D01DD067
:107F900080E101D065CF982F8091C00085FFFCCF94
:107FA0009093C60008958091C00087FFFCCF809118
:107FB000C00084FD01C0A8958091C6000895E0E648
:107FC000F0E098E1908380830895EDDF803219F02E
:107FD00088E0F5DFFFCF84E1DECF1F93182FE3DFCA
:107FE0001150E9F7F2DF1F91089580E0E8DFEE27F6
:047FF000FF270994CA
:027FFE00040479
:00000001FF
