:100000000C943F010C9470010C9470010C947001DD
:100010000C9470010C9470010C9470010C9470019C
:100020000C9470010C9470010C9470010C9470018C
:100030000C9470010C9470010C9470010C9470017C
:100040000C9470010C9470010C9470010C9470016C
:100050000C94DE060C9470010C9470010C94340620
:100060000C9470010C94A8060C947E060C947001FC
:100070000C9470010C9470010C9470010C9470013C
:100080000C9470010C9470010C9470010C9470012C
:100090000C9470010C9470010C9470010C9470011C
:1000A0000C9470010C9470010C9470010C9470010C
:1000B0000C9470010C9470010C9470010C947001FC
:1000C0000C9470010C9470010C9470010C947001EC
:1000D0000C9470010C9470010C9470010C947001DC
:1000E0000C9470010C94CB010C94A2010C94C301EC
:1000F0000C9438040C943A040C9454030C94960118
:100100000C94BD010C949A010C94B9010C94A501B6
:100110000C94AB010C9404030C9490010C94D10149
:100120000C949A030C94E7030C9439040C94D501B5
:100130000C9462030C9409070C94AF010C9408060C
:100140000C9491050C949E010C94B5010C94C7017C
:100150000C9431030C9440030C94D0010000210056
:10016000240027002A002D00300033000101000088
:10017000040107010A0100002200250028002B00CD
:100180002E003100340002010000050108010B01BE
:10019000000020002300260029002C002F00320040
:1001A0000001000003010601090105050505070519
:1001B00008080808020202020A0A080804040404E3
:1001C000010101010101010103030303030303030F
:1001D000040707070C0C0C0C0C0C0C0C020202029E
:1001E00006060606060606060B0B0B0B0B0B0B0B87
:1001F0000102102020080810204010204080020139
:10020000020108040201010204081020408080401D
:10021000201008040201800402018040201008041C
:1002200002010804020101020408102040800102BA
:1002300004081020408000000A0B02090C0D0E0873
:10024000070304010000000000000000000000009F
:10025000000000000000000000000000000000009E
:10026000000012111000000000000000000000005B
:100270000000000000000000000000000907112439
:100280001FBECFEFD1E2DEBFCDBF00E00CBF12E05A
:10029000A0E0B2E0E4E3F3E100E00BBF02C00790AE
:1002A0000D92A236B107D9F723E0A2E6B2E001C071
:1002B0001D92A433B207E1F711E0CFE3D1E000E0F3
:1002C00006C021970109802FFE010E949009CE33BC
:1002D000D10780E00807A9F70E9453070C949809FA
:1002E0000C9400008150823108F05AC0E82FF0E0F1
:1002F0008827E258FE4F8F4F0C9490099E01A2016F
:10030000900196019A01D001A501AB01AF01B501A1
:10031000B901BD01C301C701D001CB01D101D50194
:10032000809180008F778093800008958091800075
:100330008F7DF9CF80918000877FF5CF84B58F774F
:1003400084BD089584B58F7DFBCF8091B0008F77F9
:100350008093B00008958091B0008F7DF9CF809197
:1003600090008F77809390000895809190008F7D0A
:10037000F9CF80919000877FF5CF8091A0008F7793
:100380008093A00008958091A0008F7DF9CF809187
:10039000A000877FF5CF809120018F778093200187
:1003A0000895809120018F7DF9CF80912001877F72
:1003B000F5CFCF93DF93282F30E0F901EA5CFD4FB2
:1003C0008491F901E051FE4FD491F901E655FE4FB9
:1003D000C491CC23A1F081110E947201EC2FF0E0B6
:1003E000EE0FFF1FE057FE4FA591B491EC91ED2366
:1003F00081E090E009F480E0DF91CF91089580E002
:1004000090E0FACFCF92DF92EF92FF920F931F937B
:10041000CF93C0E007E010E083E7E82EF12CCC2476
:10042000C394D12C80917702909178020E94D901D7
:10043000892BC1F3C7010197F1F780917702909161
:1004400078020E94D9019601002E01C0220F0A9461
:10045000EAF7892B71F42095C2230150110910F796
:100460008C2FCF911F910F91FF90EF90DF90CF9045
:100470000895C22B80917702909178020E94D90151
:10048000892BC1F7EACF1F93CF93DF93282F30E05A
:10049000F901EA5CFD4F8491F901E051FE4FD491DE
:1004A000F901E655FE4FC491CC23A9F0162F811116
:1004B0000E947201EC2FF0E0EE0FFF1FEA58FE4F92
:1004C000A591B4918FB7F894EC91111108C0D09513
:1004D000DE23DC938FBFDF91CF911F910895DE2B38
:1004E000F8CFCF93DF9390E0FC01E051FE4F2491D1
:1004F00086559E4FFC0184918823C9F090E0880FB7
:10050000991FFC01E45AFE4FA591B491FC01EA58F1
:10051000FE4FC591D49161110DC09FB7F8948C9195
:10052000209582238C938881282328839FBFDF9185
:10053000CF910895623051F49FB7F8943C91822F87
:10054000809583238C93E8812E2BEFCF8FB7F8947F
:10055000EC912E2B2C938FBFEACF3FB7F89480916C
:10056000710290917202A0917302B091740226B54B
:10057000A89B05C02F3F19F00196A11DB11D3FBFDB
:10058000BA2FA92F982F8827BC01CD01620F711DAA
:10059000811D911D42E0660F771F881F991F4A95A4
:1005A000D1F708958F929F92AF92BF92CF92DF9230
:1005B000EF92FF924B015C010E94AD026B017C0146
:1005C0000E94AD026C197D098E099F09683E734037
:1005D00081059105A8F321E0821A9108A108B108CC
:1005E00088EEC80E83E0D81EE11CF11C8114910432
:1005F000A104B10429F7FF90EF90DF90CF90BF9056
:10060000AF909F908F900895AF92BF92CF92DF925C
:10061000EF92FF920F931F93CF93DF936C017B01B7
:100620008B01040F151FEB015E01AE18BF08C01748
:10063000D10759F06991D601ED91FC910190F081BB
:10064000E02DC6011995892B79F7C501DF91CF916E
:100650001F910F91FF90EF90DF90CF90BF90AF90E0
:100660000895FC01538D448D252F30E0842F90E0B8
:10067000821B930B541710F0CF960895019708959D
:10068000FC01918D828D981761F0A28DAE0FBF2F66
:10069000B11D5D968C91928D9F5F9F73928F90E0BC
:1006A00008958FEF9FEF0895FC01918D828D98172B
:1006B00031F0828DE80FF11D858D90E008958FEF68
:1006C0009FEF0895FC01918D228D892F90E0805C31
:1006D0009F4F821B91098F73992708958FE792E0AE
:1006E0000E94620321E0892B09F420E0822F089503
:1006F000FC01A48DA80FB92FB11DA35ABF4F2C9197
:10070000848D90E001968F739927848FA689B7898D
:100710002C93A089B1898C91837080648C93938D84
:10072000848D981306C00288F389E02D80818F7D27
:1007300080830895EF92FF920F931F93CF93DF93DF
:10074000EC0181E0888F9B8D8C8D98131AC0E8890D
:10075000F989808185FF15C09FB7F894EE89FF89DC
:100760006083E889F98980818370806480839FBF7A
:1007700081E090E0DF91CF911F910F91FF90EF907A
:100780000895F62E0B8D10E00F5F1F4F0F7311278A
:10079000E02E8C8D8E110CC00FB607FCFACFE889C5
:1007A000F989808185FFF5CFCE010E947803F1CFD2
:1007B000EB8DEC0FFD2FF11DE35AFF4FF0829FB739
:1007C000F8940B8FEA89FB8980818062CFCFCF9329
:1007D000DF93EC01888D8823B9F0AA89BB89E88969
:1007E000F9898C9185FD03C0808186FD0DC00FB60F
:1007F00007FCF7CF8C9185FFF2CF808185FFEDCF8D
:10080000CE010E947803E9CFDF91CF91089580E077
:1008100090E0892B29F00E946E0381110E94000054
:1008200080E090E0892B49F080E090E0892B29F06E
:100830000E94000081110E94000080E090E0892B5E
:1008400049F080E090E0892B29F00E94000081119E
:100850000E94000080E090E0892B49F080E090E069
:10086000892B29F00E94000081110C94000008954A
:100870000895089590E080E00895CF93DF93EC0110
:1008800060E08E810E94430261E08E810E944302FB
:1008900060E08E810E9443028BE891E00197F1F7BE
:1008A000DF91CF910895CF92DF92EF92FF920F9355
:1008B0001F93CF93DF936C017C0187E0E80EF11C5E
:1008C000D0E0C0E0062F10E0B8010C2E02C07595F4
:1008D00067950A94E2F76170F70181917F010E94A8
:1008E00043022196C430D10579F7C601DF91CF913B
:1008F0001F910F91FF90EF90DF90CF900C943D04EB
:10090000CF92DF92EF92FF920F931F93CF93DF93DB
:10091000EC01F62E642F8C810E9443028D818F3F63
:1009200019F060E00E9443020F2D10E08F8584FFD4
:1009300025C06E0187E0C80ED11CF12CE12CB80156
:100940000E2C02C0759567950A94E2F76170F60166
:1009500081916F010E944302FFEFEF1AFF0A88E0C6
:10096000E816F10461F7CE01DF91CF911F910F914D
:10097000FF90EF90DF90CF900C943D04B80184E09D
:10098000759567958A95E1F7CE010E9453046F2D06
:10099000CE01DF91CF911F910F91FF90EF90DF90EB
:1009A000CF900C94530440E0682F8CE193E00C94BA
:1009B000800481E00E94D3048BE39FE10197F1F76B
:1009C0000895CF93DF93823029F490912B039860A0
:1009D00090932B0380932F031092300380E4809335
:1009E000310380E18093320380E58093330361E03B
:1009F000809120030E947102809121038F3F19F0A2
:100A000061E00E94710261E0809122030E94710204
:100A1000CCE1D3E09E012C51334080912B0384FD27
:100A20000BC084E090E021962817390744F461E078
:100A30008E810E947102EECF88E090E0F4CF8BE3CC
:100A40009DE00197F1F760E0809120030E9443024E
:100A500060E0809122030E944302809121038F3F36
:100A600019F060E00E94430280912B0384FD34C0A2
:100A700063E08CE193E00E945304CBE4D6E4CE0122
:100A80000197F1F763E08CE193E00E945304219712
:100A9000F1F763E08CE193E00E94530483E592E078
:100AA0000197F1F762E08CE193E00E94530480919A
:100AB0002B0380620E94D30484E080932C038CE09B
:100AC0000E94D3040E94D90482E080932D0386E023
:100AD000DF91CF910C94D30480620E94D3048BE405
:100AE00096E40197F1F780912B0380620E94D30472
:100AF00083E592E00197F1F780912B0380620E94D9
:100B0000D304D5CF90912F03691710F06FEF690FC1
:100B1000E62FF0E0E45EFC4F9489890F80680C9426
:100B2000D30441E00E94800481E090E00895FB013D
:100B300001900020E9F73197AF01461B570BDC010C
:100B4000ED91FC910280F381E02D19948F929F9298
:100B5000AF92BF920F931F93CF93DF93CDB7DEB7C2
:100B6000A1970FB6F894DEBF0FBECDBF19A24230D9
:100B700008F44AE08E010F5D1F4F842E912CB12C9A
:100B8000A12CA50194010E946E09E62FB901CA01AA
:100B9000EA3004F5E05DD801EE938D01232B242B80
:100BA000252B79F790E080E0109729F0BD018CE1CA
:100BB00093E00E949705A1960FB6F894DEBF0FBE92
:100BC000CDBFDF91CF911F910F91BF90AF909F90BC
:100BD0008F900895E95CDFCFCF92DF92EF92FF9282
:100BE0006B017C0141E06DE28CE193E00E948004A6
:100BF00066277727CB016C197D098E099F094AE08A
:100C00000E94A6050196FF90EF90DF90CF90089587
:100C1000CF93DF9380916A0290916B02019709F55F
:100C2000C0916402D09165022196D0936502C09371
:100C3000640260E08EE00E948205BE01DD0F880B39
:100C4000990B97FF0AC00E94EC0560E272E08CE10C
:100C500093E0DF91CF910C9497054AE00E94A6059E
:100C6000F4CFDF91CF9108951F920F920FB60F929C
:100C700011242F933F938F939F93AF93BF938091B2
:100C80006D0290916E02A0916F02B091700230914E
:100C90006C0223E0230F2D3758F50196A11DB11DDD
:100CA00020936C0280936D0290936E02A0936F026A
:100CB000B09370028091710290917202A0917302C0
:100CC000B09174020196A11DB11D809371029093A1
:100CD0007202A0937302B0937402BF91AF919F917F
:100CE0008F913F912F910F900FBE0F901F901895ED
:100CF00026E8230F0296A11DB11DD2CF1F920F929D
:100D00000FB60F9211240BB60F922F933F934F9370
:100D10005F936F937F938F939F93AF93BF93EF9363
:100D2000FF938FE792E00E947803FF91EF91BF91CC
:100D3000AF919F918F917F916F915F914F913F9173
:100D40002F910F900BBE0F900FBE0F901F90189514
:100D50001F920F920FB60F9211240BB60F922F9382
:100D60008F939F93EF93FF93E0918F02F091900206
:100D70008081E0919502F091960282FD1DC09081E4
:100D8000809198028F5F8F7320919902821741F0B2
:100D9000E0919802F0E0E158FD4F958F8093980222
:100DA000FF91EF919F918F912F910F900BBE0F901C
:100DB0000FBE0F901F9018958081F2CF1F920F9257
:100DC0000FB60F9211240BB60F922F933F934F93B0
:100DD0005F936F937F938F939F93AF93BF93EF93A3
:100DE000FF93E0910002F09101021995FF91EF91BC
:100DF000BF91AF919F918F917F916F915F914F9133
:100E00003F912F910F900BBE0F900FBE0F901F9030
:100E10001895EFE7F2E01382128288EE93E0A0E0EB
:100E2000B0E084839583A683B78386E092E09183C4
:100E3000808385EC90E09587848784EC90E09787A9
:100E4000868780EC90E0918B808B81EC90E0938B97
:100E5000828B82EC90E0958B848B86EC90E0978B74
:100E6000868B118E128E138E148EECE1F3E01382BA
:100E7000128288E192E0918380838DE084838FEFFA
:100E800085838CE086838BE087838AE0808789E096
:100E9000818788E0828713861486158616861786D2
:100EA00081E00C94E104789484B5826084BD84B5BB
:100EB000816084BD85B5826085BD85B5816085BD55
:100EC00080916E00816080936E001092810080910D
:100ED0008100826080938100809181008160809395
:100EE0008100809180008160809380008091B100BA
:100EF00084608093B1008091B00081608093B000E5
:100F00008091910082608093910080919100816036
:100F100080939100809190008160809390008091F7
:100F2000A10082608093A1008091A10081608093E4
:100F3000A1008091A00081608093A0008091210198
:100F40008260809321018091210181608093210141
:100F50008091200181608093200180917A008460DB
:100F600080937A0080917A00826080937A008091E9
:100F70007A00816080937A0080917A008068809303
:100F80007A001092C10082E00E94E1040E94D9041C
:100F9000E0918F02F091900282E08083E0918B02D9
:100FA000F0918C021082E0918D02F0918E028FEC14
:100FB000808310929702E0919302F091940286E070
:100FC0008083E0919102F091920280818061808320
:100FD000E0919102F0919202808188608083E0919B
:100FE0009102F0919202808180688083E091910269
:100FF000F091920280818F7D808360E080E00E948A
:1010000082056AEF70E080E090E00E94D20262E226
:1010100072E08CE193E00E94970568EE73E080E057
:1010200090E00E94D2020E94D90460E087E00E9412
:10103000710262E086E00E94710280E1809381008B
:101040001092800088EA91E6909387008093860052
:1010500084E18093810088E096E090930102809380
:10106000000281E080936F000E94D90460E089E073
:101070000E9482056DE272E08CE193E00E94970588
:1010800061E080E00E94820563E372E08CE193E01E
:101090000E94970584E0682E712CCBE4D0E00BE928
:1010A00010E09BE3E92EFF24F39423ECC22ED12C15
:1010B000AA24A394B12C48E1542E70927802609235
:1010C0007702809177029091780261E00E9471022C
:1010D000809177029091780260E00E94430262E181
:1010E00070E080E090E00E94D202809177029091BF
:1010F000780261E00E944302CE010197F1F78091EE
:1011000077029091780262E00E9471021092790257
:10111000C8010197F1F780917702909178020E94BF
:10112000D901892B89F4C7010197F1F780917702E2
:10113000909178020E94D901019719F481E080937F
:101140007902C6010197F1F78091790262E572E0B8
:10115000813009F0B4C00E94020280937C020E9498
:10116000020280937D020E94020280937A020E9412
:10117000020280937B020E94020280937E02909181
:101180007C0260917A0220917D02290F3327331F60
:10119000A901460F511D20917B02240F352F311DCF
:1011A00033278217130609F088C060937502909365
:1011B000760260E080E00E9482056FE572E08CE1DB
:1011C00093E00E9497056091750270E090E080E0E6
:1011D0004AE00E94A60586E00E94D901892B21F4ED
:1011E000B0926B02A0926A0280916A0290916B02A7
:1011F000019709F05FC087E00E94D9018130910515
:10120000C1F42091680230916902232B91F420915E
:101210006602309167022F5F3F4F30936702209341
:101220006602909369028093680261E08DE00E94FB
:10123000820587E00E94D901892B51F480916802D0
:1012400090916902019721F410926902109268024C
:1012500080916402909165020A9761F5809166021F
:1012600090916702589E4001599E900C11249092D3
:1012700063028092620210926B0210926A0261E035
:101280008AE00E948205B401092C000C880B990B9E
:1012900097FE20C00E94EC0560E272E08CE193E0D2
:1012A0000E949705109267021092660210926502E2
:1012B000109264020E94070400CF6FE372E08FE790
:1012C00092E00E9497056FE472E08FE792E00E943F
:1012D00097056FCF4AE00E94A605DECFA1E21A2E45
:1012E000AA1BBB1BFD010DC0AA1FBB1FEE1FFF1FCA
:1012F000A217B307E407F50720F0A21BB30BE40B1A
:10130000F50B661F771F881F991F1A9469F7609560
:101310007095809590959B01AC01BD01CF0108951A
:10132000EE0FFF1F881F8BBF0790F691E02D1994D9
:04133000F894FFCF5F
:101334003804000000009A0304033103E703620346
:101344004003540300000000910504033A043904E7
:101354002000574845454C43484149520054696D63
:10136400653A0048427065724D696E3A2030004318
:101374006865636B2073756D206572726F72000D02
:101384000A004E6F20526573706F6E73652E0054A1
:021394003A001D
:00000001FF
